{
  "contractName": "PiggyBankCrypto",
  "abi": [
    {
      "inputs": [
        {
          "internalType": "uint256",
          "name": "minimum_",
          "type": "uint256"
        },
        {
          "internalType": "uint256",
          "name": "commission_",
          "type": "uint256"
        },
        {
          "internalType": "uint32",
          "name": "minimumDays_",
          "type": "uint32"
        }
      ],
      "stateMutability": "nonpayable",
      "type": "constructor"
    },
    {
      "anonymous": false,
      "inputs": [
        {
          "indexed": false,
          "internalType": "address",
          "name": "account",
          "type": "address"
        },
        {
          "indexed": false,
          "internalType": "uint256",
          "name": "amount",
          "type": "uint256"
        },
        {
          "indexed": false,
          "internalType": "uint256",
          "name": "commission",
          "type": "uint256"
        }
      ],
      "name": "DepositReleased",
      "type": "event"
    },
    {
      "anonymous": false,
      "inputs": [
        {
          "indexed": false,
          "internalType": "address",
          "name": "account",
          "type": "address"
        },
        {
          "indexed": false,
          "internalType": "uint256",
          "name": "expireDate",
          "type": "uint256"
        },
        {
          "indexed": false,
          "internalType": "uint256",
          "name": "amount",
          "type": "uint256"
        }
      ],
      "name": "NewDeposit",
      "type": "event"
    },
    {
      "inputs": [
        {
          "internalType": "uint256",
          "name": "commission_",
          "type": "uint256"
        }
      ],
      "name": "setCommission",
      "outputs": [],
      "stateMutability": "nonpayable",
      "type": "function"
    },
    {
      "inputs": [],
      "name": "getCommission",
      "outputs": [
        {
          "internalType": "uint256",
          "name": "",
          "type": "uint256"
        }
      ],
      "stateMutability": "view",
      "type": "function",
      "constant": true
    },
    {
      "inputs": [
        {
          "internalType": "uint256",
          "name": "minimum_",
          "type": "uint256"
        }
      ],
      "name": "setMinimum",
      "outputs": [],
      "stateMutability": "nonpayable",
      "type": "function"
    },
    {
      "inputs": [],
      "name": "getMinimum",
      "outputs": [
        {
          "internalType": "uint256",
          "name": "",
          "type": "uint256"
        }
      ],
      "stateMutability": "view",
      "type": "function",
      "constant": true
    },
    {
      "inputs": [],
      "name": "getMinimumDays",
      "outputs": [
        {
          "internalType": "uint256",
          "name": "",
          "type": "uint256"
        }
      ],
      "stateMutability": "view",
      "type": "function",
      "constant": true
    },
    {
      "inputs": [
        {
          "internalType": "uint32",
          "name": "minimumDays_",
          "type": "uint32"
        }
      ],
      "name": "setMinimumDays",
      "outputs": [],
      "stateMutability": "nonpayable",
      "type": "function"
    },
    {
      "inputs": [],
      "name": "viewMyDepositExpireDate",
      "outputs": [
        {
          "internalType": "uint256",
          "name": "",
          "type": "uint256"
        }
      ],
      "stateMutability": "view",
      "type": "function",
      "constant": true
    },
    {
      "inputs": [],
      "name": "viewMyDepositAmount",
      "outputs": [
        {
          "internalType": "uint256",
          "name": "",
          "type": "uint256"
        }
      ],
      "stateMutability": "view",
      "type": "function",
      "constant": true
    },
    {
      "inputs": [],
      "name": "viewMyDeposit",
      "outputs": [
        {
          "internalType": "uint256",
          "name": "",
          "type": "uint256"
        },
        {
          "internalType": "uint256",
          "name": "",
          "type": "uint256"
        }
      ],
      "stateMutability": "view",
      "type": "function",
      "constant": true
    },
    {
      "inputs": [
        {
          "internalType": "uint256",
          "name": "daysToExpire",
          "type": "uint256"
        }
      ],
      "name": "makeDeposit",
      "outputs": [],
      "stateMutability": "payable",
      "type": "function",
      "payable": true
    },
    {
      "inputs": [],
      "name": "addDeposit",
      "outputs": [],
      "stateMutability": "payable",
      "type": "function",
      "payable": true
    },
    {
      "inputs": [],
      "name": "contractBalance",
      "outputs": [
        {
          "internalType": "uint256",
          "name": "",
          "type": "uint256"
        }
      ],
      "stateMutability": "view",
      "type": "function",
      "constant": true
    },
    {
      "inputs": [],
      "name": "releaseDeposit",
      "outputs": [],
      "stateMutability": "nonpayable",
      "type": "function"
    }
  ],
  "bytecode": "0x608060405234801561001057600080fd5b50604051610fa1380380610fa18339818101604052606081101561003357600080fd5b81019080805190602001909291908051906020019092919080519060200190929190505050336000806101000a81548173ffffffffffffffffffffffffffffffffffffffff021916908373ffffffffffffffffffffffffffffffffffffffff160217905550826001819055508160028190555080600360006101000a81548163ffffffff021916908363ffffffff160217905550505050610ec8806100d96000396000f3fe6080604052600436106100c25760003560e01c80638b7afe2e1161007f578063be5e56b411610059578063be5e56b41461023f578063e65d6b491461026a578063ee041ee614610295578063fb022320146102d6576100c2565b80638b7afe2e146101b75780639d140332146101e2578063bc2d16e614610214576100c2565b8063059a500c146100c75780631e9810e9146100f55780633209e9e61461010c578063355e6b43146101475780634a58db191461018257806363aa673b1461018c575b600080fd5b6100f3600480360360208110156100dd57600080fd5b8101908080359060200190929190505050610301565b005b34801561010157600080fd5b5061010a610636565b005b34801561011857600080fd5b506101456004803603602081101561012f57600080fd5b810190808035906020019092919050505061096c565b005b34801561015357600080fd5b506101806004803603602081101561016a57600080fd5b81019080803590602001909291905050506109ce565b005b61018a610a30565b005b34801561019857600080fd5b506101a1610c92565b6040518082815260200191505060405180910390f35b3480156101c357600080fd5b506101cc610c9c565b6040518082815260200191505060405180910390f35b3480156101ee57600080fd5b506101f7610ca4565b604051808381526020018281526020019250505060405180910390f35b34801561022057600080fd5b50610229610d35565b6040518082815260200191505060405180910390f35b34801561024b57600080fd5b50610254610d7f565b6040518082815260200191505060405180910390f35b34801561027657600080fd5b5061027f610d9f565b6040518082815260200191505060405180910390f35b3480156102a157600080fd5b506102d4600480360360208110156102b857600080fd5b81019080803563ffffffff169060200190929190505050610da9565b005b3480156102e257600080fd5b506102eb610e25565b6040518082815260200191505060405180910390f35b600062015180820242019050600154341015610385576040517f08c379a000000000000000000000000000000000000000000000000000000000815260040180806020018281038252601e8152602001807f5468652076616c7565206973206c657373207468616e206d696e696d756d000081525060200191505060405180910390fd5b6000600460003373ffffffffffffffffffffffffffffffffffffffff1673ffffffffffffffffffffffffffffffffffffffff168152602001908152602001600020600001541461043d576040517f08c379a000000000000000000000000000000000000000000000000000000000815260040180806020018281038252601a8152602001807f596f7520616c726561647920686176652061206465706f73697400000000000081525060200191505060405180910390fd5b600082116104b3576040517f08c379a000000000000000000000000000000000000000000000000000000000815260040180806020018281038252600c8152602001807f496e76616c69642064617973000000000000000000000000000000000000000081525060200191505060405180910390fd5b62015180600360009054906101000a900463ffffffff160263ffffffff1642018111610547576040517f08c379a000000000000000000000000000000000000000000000000000000000815260040180806020018281038252601d8152602001807f796f757220657870697265206461746520736920746f6f2073686f727400000081525060200191505060405180910390fd5b34600460003373ffffffffffffffffffffffffffffffffffffffff1673ffffffffffffffffffffffffffffffffffffffff1681526020019081526020016000206000018190555080600460003373ffffffffffffffffffffffffffffffffffffffff1673ffffffffffffffffffffffffffffffffffffffff168152602001908152602001600020600101819055507fa91e0c3165215fe453f5bf3de083d5fd6c4e62c491849155a042a647588c53a0338234604051808473ffffffffffffffffffffffffffffffffffffffff168152602001838152602001828152602001935050505060405180910390a15050565b6000600460003373ffffffffffffffffffffffffffffffffffffffff1673ffffffffffffffffffffffffffffffffffffffff16815260200190815260200160002060000154116106ee576040517f08c379a00000000000000000000000000000000000000000000000000000000081526004018080602001828103825260188152602001807f596f7520646f6573206e6f74206861766520666f756e6473000000000000000081525060200191505060405180910390fd5b600254600460003373ffffffffffffffffffffffffffffffffffffffff1673ffffffffffffffffffffffffffffffffffffffff168152602001908152602001600020600001541161078a576040517f08c379a0000000000000000000000000000000000000000000000000000000008152600401808060200182810382526023815260200180610e706023913960400191505060405180910390fd5b600154600460003373ffffffffffffffffffffffffffffffffffffffff1673ffffffffffffffffffffffffffffffffffffffff1681526020019081526020016000206000015411610826576040517f08c379a0000000000000000000000000000000000000000000000000000000008152600401808060200182810382526023815260200180610e706023913960400191505060405180910390fd5b6000600254600460003373ffffffffffffffffffffffffffffffffffffffff1673ffffffffffffffffffffffffffffffffffffffff168152602001908152602001600020600001540390503373ffffffffffffffffffffffffffffffffffffffff166108fc829081150290604051600060405180830381858888f193505050501580156108b7573d6000803e3d6000fd5b50600460003373ffffffffffffffffffffffffffffffffffffffff1673ffffffffffffffffffffffffffffffffffffffff168152602001908152602001600020600080820160009055600182016000905550507f2555fbb0e5b5b0e3959bdf612b2426dcb8ddfab7787e3d1b2cbb54e0d9b659de3382600254604051808473ffffffffffffffffffffffffffffffffffffffff168152602001838152602001828152602001935050505060405180910390a150565b60008054906101000a900473ffffffffffffffffffffffffffffffffffffffff1673ffffffffffffffffffffffffffffffffffffffff163373ffffffffffffffffffffffffffffffffffffffff16146109c457600080fd5b8060018190555050565b60008054906101000a900473ffffffffffffffffffffffffffffffffffffffff1673ffffffffffffffffffffffffffffffffffffffff163373ffffffffffffffffffffffffffffffffffffffff1614610a2657600080fd5b8060028190555050565b6001543411610aa7576040517f08c379a000000000000000000000000000000000000000000000000000000000815260040180806020018281038252601e8152602001807f5468652076616c7565206973206c657373207468616e206d696e696d756d000081525060200191505060405180910390fd5b6000600460003373ffffffffffffffffffffffffffffffffffffffff1673ffffffffffffffffffffffffffffffffffffffff1681526020019081526020016000206000015411610b5f576040517f08c379a00000000000000000000000000000000000000000000000000000000081526004018080602001828103825260118152602001807f596f752068617665206e6f2066756e647300000000000000000000000000000081525060200191505060405180910390fd5b34600460003373ffffffffffffffffffffffffffffffffffffffff1673ffffffffffffffffffffffffffffffffffffffff168152602001908152602001600020600001600082825401925050819055507fa91e0c3165215fe453f5bf3de083d5fd6c4e62c491849155a042a647588c53a033600460003373ffffffffffffffffffffffffffffffffffffffff1673ffffffffffffffffffffffffffffffffffffffff16815260200190815260200160002060010154600460003373ffffffffffffffffffffffffffffffffffffffff1673ffffffffffffffffffffffffffffffffffffffff16815260200190815260200160002060000154604051808473ffffffffffffffffffffffffffffffffffffffff168152602001838152602001828152602001935050505060405180910390a1565b6000600154905090565b600047905090565b600080600460003373ffffffffffffffffffffffffffffffffffffffff1673ffffffffffffffffffffffffffffffffffffffff16815260200190815260200160002060000154600460003373ffffffffffffffffffffffffffffffffffffffff1673ffffffffffffffffffffffffffffffffffffffff16815260200190815260200160002060010154915091509091565b6000600460003373ffffffffffffffffffffffffffffffffffffffff1673ffffffffffffffffffffffffffffffffffffffff16815260200190815260200160002060000154905090565b6000600360009054906101000a900463ffffffff1663ffffffff16905090565b6000600254905090565b60008054906101000a900473ffffffffffffffffffffffffffffffffffffffff1673ffffffffffffffffffffffffffffffffffffffff163373ffffffffffffffffffffffffffffffffffffffff1614610e0157600080fd5b80600360006101000a81548163ffffffff021916908363ffffffff16021790555050565b6000600460003373ffffffffffffffffffffffffffffffffffffffff1673ffffffffffffffffffffffffffffffffffffffff1681526020019081526020016000206001015490509056fe596f7520646f6573206e6f7420686176652073756666696369656e7420666f756e6473a26469706673582212207d604c21fde8a256567a308e0874e3a50cfb77a60c7743fc471360b06c8ec54364736f6c63430007010033",
  "immutableReferences": {},
  "source": "// SPDX-License-Identifier: GPL-3.0\n\npragma solidity >=0.7.0 <0.9.0;\n\ncontract PiggyBankCrypto {\n\n    address owner;\n\n    modifier onlyOwner() {\n        require(msg.sender == owner);\n        _;\n    }\n\n    struct Deposit {\n        uint256 amount;\n        uint256 expireDate;\n    }\n\n    uint256 private _minimum;\n    uint256 private _commission;\n    uint32 private _minimumDays;\n\n    constructor(uint256 minimum_, uint256 commission_, uint32 minimumDays_) {\n        owner = msg.sender;\n\n        _minimum = minimum_;\n        _commission = commission_;\n        _minimumDays = minimumDays_;\n    }\n\n    mapping(address => Deposit) private _deposits;\n\n    event NewDeposit(\n        address account,\n        uint256 expireDate,\n        uint256 amount\n    );\n\n    event DepositReleased(\n        address account,\n        uint256 amount,\n        uint256 commission\n    );\n\n    function setCommission(uint256 commission_) public onlyOwner {\n        _commission = commission_;\n    }\n\n    function getCommission() public view returns (uint256) {\n        return _commission;\n    }\n\n    function setMinimum(uint256 minimum_) public onlyOwner {\n        _minimum = minimum_;\n    }\n\n    function getMinimum() public view returns (uint256) {\n        return _minimum;\n    }\n\n    function getMinimumDays() public view returns (uint256) {\n        return _minimumDays;\n    }\n\n    function setMinimumDays(uint32 minimumDays_) public onlyOwner {\n        _minimumDays = minimumDays_;\n    }\n\n    function viewMyDepositExpireDate() public view returns (uint256) { // remover (usaria el ViewMyDeposit)\n        return _deposits[msg.sender].expireDate;\n    }\n\n    function viewMyDepositAmount() public view returns (uint256) { // remover (usaria el ViewMyDeposit)\n        return _deposits[msg.sender].amount;\n    }\n\n    function viewMyDeposit() public view returns (uint256, uint256) {\n        return (_deposits[msg.sender].amount, _deposits[msg.sender].expireDate);\n    }\n\n    function makeDeposit(uint256 daysToExpire) public payable {\n        uint256 expireDate = block.timestamp + (daysToExpire * (1 days));\n        require(msg.value >= _minimum, \"The value is less than minimum\");\n        require(_deposits[msg.sender].amount == 0, \"You already have a deposit\");\n        require(daysToExpire > 0, \"Invalid days\");\n        require(expireDate > block.timestamp + (_minimumDays * (1 days)), \"your expire date si too short\");\n\n        _deposits[msg.sender].amount = msg.value;\n        _deposits[msg.sender].expireDate = expireDate;\n\n        emit NewDeposit(msg.sender, expireDate, msg.value);\n    }\n\n    function addDeposit() public payable {\n        require(msg.value > _minimum, \"The value is less than minimum\");\n        require(_deposits[msg.sender].amount > 0, \"You have no funds\");\n\n        _deposits[msg.sender].amount += msg.value;\n\n        emit NewDeposit(msg.sender, _deposits[msg.sender].expireDate, _deposits[msg.sender].amount);\n    }\n\n    function contractBalance() public view returns (uint256) { // cuando resuelva lo del web3 getBalance en react remover esta funcion\n        return address(this).balance;\n    }\n\n    function releaseDeposit() public {\n        require(_deposits[msg.sender].amount > 0, \"You does not have founds\");\n        require(_deposits[msg.sender].amount > _commission, \"You does not have sufficient founds\");\n        require(_deposits[msg.sender].amount > _minimum, \"You does not have sufficient founds\");\n\n        // Quitar cuando se pase a produccion\n        // require(block.timestamp > _deposits[msg.sender].expireDate, \"Your deposit is not finished\");\n        \n        uint256 transferAmount = _deposits[msg.sender].amount - _commission;\n        \n        payable(msg.sender).transfer(transferAmount);\n\n        delete _deposits[msg.sender];\n\n        //que pasa si falla el transfer? conviene hacer un send?\n        // what happened if transfer fails? should I do a Send?\n\n        emit DepositReleased(msg.sender, transferAmount, _commission);\n    }\n}",
  "sourcePath": "/Users/christianperez/proyects/react/piggy-bank-crypto/solidity/contracts/PiggyBankCrypto.sol",
  "compiler": {
    "name": "solc",
    "version": "0.7.1+commit.f4a555be.Emscripten.clang"
  },
  "schemaVersion": "3.4.5",
  "updatedAt": "2022-05-25T15:02:07.236Z",
  "networkType": "ethereum",
  "devdoc": {
    "kind": "dev",
    "methods": {},
    "version": 1
  },
  "userdoc": {
    "kind": "user",
    "methods": {},
    "version": 1
  }
}